{
  "_format": "hh-sol-artifact-1",
  "contractName": "PingPong",
  "sourceName": "contracts/PingPong.sol",
  "abi": [
    {
      "inputs": [],
      "stateMutability": "nonpayable",
      "type": "constructor"
    },
    {
      "anonymous": false,
      "inputs": [
        {
          "indexed": false,
          "internalType": "address",
          "name": "pinger",
          "type": "address"
        }
      ],
      "name": "NewPinger",
      "type": "event"
    },
    {
      "anonymous": false,
      "inputs": [],
      "name": "Ping",
      "type": "event"
    },
    {
      "anonymous": false,
      "inputs": [
        {
          "indexed": false,
          "internalType": "bytes32",
          "name": "txHash",
          "type": "bytes32"
        }
      ],
      "name": "Pong",
      "type": "event"
    },
    {
      "inputs": [
        {
          "internalType": "address",
          "name": "_pinger",
          "type": "address"
        }
      ],
      "name": "changePinger",
      "outputs": [],
      "stateMutability": "nonpayable",
      "type": "function"
    },
    {
      "inputs": [],
      "name": "ping",
      "outputs": [],
      "stateMutability": "nonpayable",
      "type": "function"
    },
    {
      "inputs": [],
      "name": "pinger",
      "outputs": [
        {
          "internalType": "address",
          "name": "",
          "type": "address"
        }
      ],
      "stateMutability": "view",
      "type": "function"
    },
    {
      "inputs": [
        {
          "internalType": "bytes32",
          "name": "_txHash",
          "type": "bytes32"
        }
      ],
      "name": "pong",
      "outputs": [],
      "stateMutability": "nonpayable",
      "type": "function"
    }
  ],
  "bytecode": "0x6080604052348015600f57600080fd5b50336000806101000a81548173ffffffffffffffffffffffffffffffffffffffff021916908373ffffffffffffffffffffffffffffffffffffffff1602179055506104ed8061005f6000396000f3fe608060405234801561001057600080fd5b506004361061004c5760003560e01c806305ba79a2146100515780630860f3b01461006d5780635c36b18614610089578063b97399f514610093575b600080fd5b61006b6004803603810190610066919061032e565b6100b1565b005b610087600480360381019061008291906103b9565b6100eb565b005b610091610213565b005b61009b6102cf565b6040516100a891906103f5565b60405180910390f35b7f67050610046771547cf1d6e467b904ccfc523370eebc895dad1d9a73349b9804816040516100e0919061041f565b60405180910390a150565b60008054906101000a900473ffffffffffffffffffffffffffffffffffffffff1673ffffffffffffffffffffffffffffffffffffffff163373ffffffffffffffffffffffffffffffffffffffff1614610179576040517f08c379a000000000000000000000000000000000000000000000000000000000815260040161017090610497565b60405180910390fd5b806000806101000a81548173ffffffffffffffffffffffffffffffffffffffff021916908373ffffffffffffffffffffffffffffffffffffffff1602179055507f2f370de2916d79e147ab3994047775d4c93d478ac1f844ce0b1c4bcfba36427760008054906101000a900473ffffffffffffffffffffffffffffffffffffffff1660405161020891906103f5565b60405180910390a150565b60008054906101000a900473ffffffffffffffffffffffffffffffffffffffff1673ffffffffffffffffffffffffffffffffffffffff163373ffffffffffffffffffffffffffffffffffffffff16146102a1576040517f08c379a000000000000000000000000000000000000000000000000000000000815260040161029890610497565b60405180910390fd5b7fca6e822df923f741dfe968d15d80a18abd25bd1e748bcb9ad81fea5bbb7386af60405160405180910390a1565b60008054906101000a900473ffffffffffffffffffffffffffffffffffffffff1681565b600080fd5b6000819050919050565b61030b816102f8565b811461031657600080fd5b50565b60008135905061032881610302565b92915050565b600060208284031215610344576103436102f3565b5b600061035284828501610319565b91505092915050565b600073ffffffffffffffffffffffffffffffffffffffff82169050919050565b60006103868261035b565b9050919050565b6103968161037b565b81146103a157600080fd5b50565b6000813590506103b38161038d565b92915050565b6000602082840312156103cf576103ce6102f3565b5b60006103dd848285016103a4565b91505092915050565b6103ef8161037b565b82525050565b600060208201905061040a60008301846103e6565b92915050565b610419816102f8565b82525050565b60006020820190506104346000830184610410565b92915050565b600082825260208201905092915050565b7f4f6e6c79207468652070696e6765722063616e2063616c6c20746869732e0000600082015250565b6000610481601e8361043a565b915061048c8261044b565b602082019050919050565b600060208201905081810360008301526104b081610474565b905091905056fea2646970667358221220511a13fa8af7603d9ba9eb06f279b233cc65b74a01b1281f6c89d2f451cd217264736f6c634300081c0033",
  "linkReferences": {},
  "deployedLinkReferences": {}
}